:100000000C9472000C9486000C9486000C9486006C
:100010000C9486000C9486000C9486000C94860048
:100020000C9486000C9486000C9486000C94860038
:100030000C9486000C9486000C9486000C94860028
:100040000C9486000C9486000C9486000C94860018
:100050000C9486000C9486000C9486000C942F035C
:100060000C9486000C941B090C94CB080C9486000D
:100070000C9486000C9486000C9486000C948600E8
:100080000C9486000C9486000C9486000C948600D8
:100090000C9486000C9486000C9486000C948600C8
:1000A0000C9486000C9486000C9486000C948600B8
:1000B0000C9486000C9486000C9486000C948600A8
:1000C0000C9486000C9486000C9486000C94860098
:1000D0000C9486000C9486000C9486000C94860088
:1000E0000C94860011241FBECFEFD1E2DEBFCDBF3E
:1000F00000E00CBF22E0A0E0B2E001C01D92A035FC
:10010000B207E1F70E9479070C945F0B0C94000092
:10011000CF93DF93CDB7DEB780E390E0FC01208181
:1001200080E390E02C7FFC01208381E390E0FC01E0
:10013000208181E390E02360FC01208384E290E051
:10014000FC01208184E290E02360FC012083000018
:10015000DF91CF9108952F923F924F925F926F92CD
:100160007F928F929F92AF92BF92CF92DF92EF9247
:10017000FF920F931F93CF93DF9300D000D000D056
:100180000F92CDB7DEB79A83898389819A818130B6
:10019000910579F4809100029091010221E000978D
:1001A00009F020E0822F90E09093010280930002FA
:1001B00090C089819A818230910509F08AC080E0DF
:1001C00090E00E94C5025C01892F880F880BC82E21
:1001D000D82EE82EF82E082F182F209002023090EB
:1001E0000302409004025090050260900602709055
:1001F000070280900802909009022A2D3B2D4C2D79
:100200005D2D6E2D7F2D802F912FA22CB32CC42C11
:10021000D52CE62CF72C082D192D0E94270A822EAA
:10022000932EA42EB52EC62ED72EE82EF92E282DCD
:10023000392D4A2D5B2D6C2D7D2D8E2D9F2D283C2B
:10024000310541055105610571058105910509F0EB
:1002500008F43FC08FE290E0FC018081882F90E09D
:10026000817099270097A9F5809100029091010271
:1002700021E0009709F020E0822F90E090930102A6
:100280008093000280E090E00E94C5029C838B83F3
:10029000892F880F880B8D838E838F83888789872A
:1002A0008A87FB81F09302028C8180930302ED81A7
:1002B000E0930402FE81F09305028F818093060291
:1002C000E885E0930702F985F09308028A85809318
:1002D00009028091000290910102009751F085E29D
:1002E00090E0FC01208185E290E02E7FFC012083DC
:1002F00009C085E290E0FC01208185E290E0216068
:10030000FC01208380910002909101022A960FB691
:10031000F894DEBF0FBECDBFDF91CF911F910F913B
:10032000FF90EF90DF90CF90BF90AF909F908F9015
:100330007F906F905F904F903F902F9008952F92F5
:100340003F924F925F926F927F928F929F92AF9265
:10035000BF92CF92DF92EF92FF920F931F93CF93B2
:10036000DF9300D000D000D00F92CDB7DEB79A83D4
:10037000898389819A818130910579F480910A027B
:1003800090910B0221E0009709F020E0822F90E08D
:1003900090930B0280930A0290C089819A818230E7
:1003A000910509F08AC080E090E00E94C5025C01DE
:1003B000892F880F880BC82ED82EE82EF82E082FEC
:1003C000182F20900C0230900D0240900E02509099
:1003D0000F026090100270901102809012029090B3
:1003E00013022A2D3B2D4C2D5D2D6E2D7F2D802F40
:1003F000912FA22CB32CC42CD52CE62CF72C082D35
:10040000192D0E94270A822E932EA42EB52EC62EB9
:10041000D72EE82EF92E282D392D4A2D5B2D6C2D47
:100420007D2D8E2D9F2D283C3105410551056105FF
:1004300071058105910509F008F43FC08FE290E055
:10044000FC018081882F90E0827099270097A9F5A0
:1004500080910A0290910B0221E0009709F020E0C0
:10046000822F90E090930B0280930A0280E090E04C
:100470000E94C5029C838B83892F880F880B8D83F4
:100480008E838F83888789878A87FB81F0930C020C
:100490008C8180930D02ED81E0930E02FE81F0933A
:1004A0000F028F8180931002E885E0931102F98595
:1004B000F09312028A858093130280910A02909130
:1004C0000B02009751F085E290E0FC01208185E26B
:1004D00090E02D7FFC01208309C085E290E0FC01C3
:1004E000208185E290E02260FC01208380910A0255
:1004F00090910B022A960FB6F894DEBF0FBECDBFC7
:10050000DF91CF911F910F91FF90EF90DF90CF90EF
:10051000BF90AF909F908F907F906F905F904F9023
:100520003F902F900895CF93DF93CDB7DEB7F89427
:1005300084E490E0FC01108285E490E0FC011082EC
:1005400086E490E026E0FC01208384E490E0FC0156
:10055000208184E490E02260FC01208385E490E027
:10056000FC01208185E490E02360FC0120838EE67D
:1005700090E0FC0120818EE690E02160FC01208368
:1005800078940000DF91CF9108958F929F92AF925F
:10059000BF92CF92DF92EF92FF920F931F93CF9370
:1005A000DF930F920F92CDB7DEB79A83898389814B
:1005B0009A818130910599F58090140290901502EE
:1005C000A0901602B0901702C0901802D0901902A5
:1005D000E0901A02F0901B02282D392D4A2D5B2D38
:1005E0006C2D7D2D8E2D9F2DA1E00E941B0A822E49
:1005F000932EA42EB52EC62ED72EE82EF92E80923D
:10060000140290921502A0921602B0921702C092A4
:100610001802D0921902E0921A02F0921B02009185
:100620001402109115022091160230911702409188
:1006300018025091190260911A0270911B02C801B0
:100640000F900F90DF91CF911F910F91FF90EF903E
:10065000DF90CF90BF90AF909F908F9008951F92A2
:100660000F920FB60F9211240BB60F922F933F9358
:100670004F935F936F937F938F939F93AF93BF93AA
:10068000EF93FF93CF93DF93CDB7DEB786E490E08F
:1006900026E0FC01208381E090E00E94C50200007A
:1006A000DF91CF91FF91EF91BF91AF919F918F918A
:1006B0007F916F915F914F913F912F910F900BBE62
:1006C0000F900FBE0F901F901895CF93DF9300D01F
:1006D0000F92CDB7DEB79C838B838B819C81811574
:1006E00020E8920729F48FEF9FE79A83898309C056
:1006F0008B819C8199231CF49195819591099A8312
:10070000898389819A810F900F900F900F90DF91CC
:10071000CF910895CF93DF93CDB7DEB7F89480E9FA
:1007200090E0FC01208180E990E0286AFC012083B0
:1007300081E990E0FC01208181E990E02260FC01E8
:10074000208388E990E0FC01118210828AE990E020
:10075000FC01118210828DE290E0FC0120818DE28B
:1007600090E02861FC01208380EA90E0FC01208178
:1007700080EA90E0226AFC01208381EA90E0FC019B
:10078000208181EA90E02960FC01208388EA90E0E2
:10079000FC01118210828AEA90E0FC011182108231
:1007A00081E091E028E1FC01208380E291E0FC01FE
:1007B000208180E291E0226AFC01208381E291E0C5
:1007C000FC01208181E291E02960FC01208388E224
:1007D00091E0FC01118210828AE291E0FC01118219
:1007E00010828AE091E028E1FC01208384E990E016
:1007F000FC011182108284EA90E0FC0111821082D7
:1008000084E291E0FC011182108278940000DF9173
:10081000CF910895CF93DF930F920F92CDB7DEB7AC
:100820009A83898389819A818336910511F00CF02E
:100830004AC089819A818D392FEF92070CF443C009
:1008400089819A810097B9F0B4F089819A81982FB3
:100850008827990F24E630E0B9010E94070ACB01EE
:100860009C0188E990E0FC01318320838AE990E0D3
:10087000FC011182108289819A819923B4F488E95C
:1008800090E0FC011182108289819A81982F88273B
:10089000990F2CE93FEFB9010E94070ACB019C0197
:1008A0008AE990E0FC013183208389819A81009755
:1008B00051F488E990E0FC01118210828AE990E00D
:1008C000FC011182108200000F900F90DF91CF91F8
:1008D0000895CF93DF930F920F92CDB7DEB79A832F
:1008E000898389819A818336910511F00CF04AC081
:1008F00089819A818D392FEF92070CF443C0898149
:100900009A810097B9F0B4F089819A81982F88274D
:10091000990F24E630E0B9010E94070ACB019C013F
:1009200088EA90E0FC01318320838AEA90E0FC01B0
:100930001182108289819A819923B4F488EA90E027
:10094000FC011182108289819A81982F8827990F42
:100950002CE93FEFB9010E94070ACB019C018AEA0A
:1009600090E0FC013183208389819A81009751F4C2
:1009700088EA90E0FC01118210828AEA90E0FC0192
:100980001182108200000F900F90DF91CF91089597
:10099000CF93DF930F920F92CDB7DEB79A838983FF
:1009A00089819A818336910511F00CF04AC08981C2
:1009B0009A818D392FEF92070CF443C089819A8177
:1009C0000097B9F0B4F089819A81982F8827990F00
:1009D00024E630E0B9010E94070ACB019C0188E2BD
:1009E00091E0FC01318320838AE291E0FC011182D5
:1009F000108289819A819923B4F488E291E0FC0104
:100A00001182108289819A81982F8827990F2CE969
:100A10003FEFB9010E94070ACB019C018AE291E0F5
:100A2000FC013183208389819A81009751F488E207
:100A300091E0FC01118210828AE291E0FC011182B6
:100A4000108200000F900F90DF91CF910895CF9307
:100A5000DF9300D000D000D00F92CDB7DEB78887EB
:100A60007A8769878885882339F489859A85909360
:100A70001D0280931C0216C08885813039F4898557
:100A80009A8590931F0280931E020CC089859A85D7
:100A900090931D0280931C0289859A8590931F0272
:100AA00080931E0220911E0230911F0280911C0231
:100AB00090911D02A901481B590BCA019B838A838F
:100AC0008A819B8199231CF081E0898302C08FEF8A
:100AD00089838A819B810E9465039D838C832091F9
:100AE0001C0230911D028091200290912102A901E7
:100AF000481B590BCA010E9465039F838E838C811A
:100B00009D818230910509F06CF480911C029091D6
:100B10001D02909321028093200280E090E00E94C9
:100B20000A044BC08C819D818930910509F084F4C1
:100B30008981282F880F330BC901880F991F880FCF
:100B4000991F820F931F880F991F0E940A0435C0B6
:100B50008E819F818133910509F074F48981082E7B
:100B6000000C990B44E1489F9001499F300D1124DE
:100B7000C9010E940A0421C08C819D818D3191059B
:100B800009F074F48981082E000C990B44E1489F08
:100B90009001499F300D1124C9010E940A040DC023
:100BA0008981082E000C990B42E3489F9001499FD0
:100BB000300D1124C9010E940A0400002A960FB6C4
:100BC000F894DEBF0FBECDBFDF91CF910895CF93D4
:100BD000DF9300D000D000D00F92CDB7DEB788876A
:100BE0007A8769878885882339F489859A859093DF
:100BF00023028093220216C08885813039F48985CA
:100C00009A8590932502809324020CC089859A8549
:100C1000909323028093220289859A8590932502DE
:100C20008093240220912402309125028091220297
:100C300090912302A901481B590BCA019B838A8307
:100C40008A819B8199231CF081E0898302C08FEF08
:100C500089838A819B810E9465039D838C83209177
:100C60002202309123028091260290912702A9014D
:100C7000481B590BCA010E9465039F838E838C8198
:100C80009D818230910509F06CF48091220290914F
:100C90002302909327028093260280E090E00E9436
:100CA00069045FC08C819D818930910509F084F4CD
:100CB0008981282F880F330BC901880F991F880F4E
:100CC000991F820F931F880F991F0E94690449C0C2
:100CD0008E819F818133910509F074F48981082EFA
:100CE000000C990B44E1489F9001499F300D11245D
:100CF000C9010E94690435C08C819D818D319105A7
:100D000009F074F48981082E000C990B44E1489F86
:100D10009001499F300D1124C9010E94690421C02E
:100D20008C819D818336910509F074F48981082EA8
:100D3000000C990B42E3489F9001499F300D11240C
:100D4000C9010E9469040DC08981082E000C990B0D
:100D500040E5489F9001499F300D1124C9010E9430
:100D6000690400002A960FB6F894DEBF0FBECDBF0F
:100D7000DF91CF910895CF93DF9300D000D000D0C2
:100D80000F92CDB7DEB788877A87698788858823F1
:100D900039F489859A85909329028093280216C098
:100DA0008885813039F489859A8590932B028093C8
:100DB0002A020CC089859A85909329028093280283
:100DC00089859A8590932B0280932A0220912A028A
:100DD00030912B028091280290912902A901481B91
:100DE000590BCA019B838A838A819B8199231CF0BA
:100DF00081E0898302C08FEF89838A819B810E9471
:100E000065039D838C832091280230912902809173
:100E10002C0290912D02A901481B590BCA010E9476
:100E200065039F838E838C819D818230910509F0BB
:100E30006CF4809128029091290290932D02809366
:100E40002C0280E090E00E94690449C08C819D8161
:100E50008930910509F074F48981082E000C990BF2
:100E60004EE1489F9001499F300D1124C9010E9415
:100E7000690435C08E819F818133910509F074F436
:100E80008981082E000C990B44E6489F9001499FE8
:100E9000300D1124C9010E94690421C08C819D81FB
:100EA0008D31910509F074F48981082E000C990B9D
:100EB00042E3489F9001499F300D1124C9010E94CF
:100EC00069040DC08981082E000C990B40E5489FEC
:100ED0009001499F300D1124C9010E94690400004E
:100EE0002A960FB6F894DEBF0FBECDBFDF91CF912B
:100EF0000895CF93DF93CDB7DEB7A2970FB6F894DE
:100F0000DEBF0FBECDBF0E9493020E9488000E94E8
:100F10008A030E94AB098FC080E090E0A0E8BFE3A5
:100F200089839A83AB83BC8320E030E04AE755E4B1
:100F300069817A818B819C810E94CA0A6B8B7C8B30
:100F40008D8B9E8B8B899C89AD89BE898D839E8379
:100F5000AF83B88720E030E040E85FE36D817E81B9
:100F60008F8198850E94440A88232CF481E090E0C8
:100F70009A87898755C020E03FEF4FE757E46D819E
:100F80007E818F8198850E94C50A8823D9F1D4F18A
:100F900020E030E040E251E469817A818B819C81DC
:100FA0000E94CA0A6F8B788F898F9A8F8F89988D4C
:100FB000A98DBA8D8F87988BA98BBA8B6F8578890D
:100FC00089899A890E94490A6B8F7C8F8D8F9E8FA9
:100FD000AB8DBC8DBA87A98710C080E991E09C8752
:100FE0008B878B859C850197F1F79C878B87000009
:100FF00089859A8501979A87898789859A85009737
:1010000061F719C06D817E818F8198850E94490AA0
:101010006F8F78A389A39AA38F8D98A19A878987C8
:1010200089859A859E878D878D859E850197F1F7A5
:101030009E878D87000080912E02882309F46CCF53
:1010400080913102282F30E080913202882F90E089
:10105000982F8827822B932BBC0182E00E942705C2
:1010600080913302282F30E080913402882F90E065
:10107000982F8827822B932BBC0182E00E94E705E2
:1010800080913502282F30E080913602882F90E041
:10109000982F8827822B932BBC0182E00E94BB06ED
:1010A00010922E0282E090E00E94AB0082E090E07D
:1010B0000E949F0180912E028823A1F310922E029C
:1010C00080913002813089F580913102282F30E003
:1010D00080913202882F90E0982F8827822B932BC3
:1010E000BC0180E00E94270580913302282F30E068
:1010F00080913402882F90E0982F8827822B932BA1
:10110000BC0180E00E94E70580913502282F30E085
:1011100080913602882F90E0982F8827822B932B7E
:10112000BC0180E00E94BB06BDCF809130028230BE
:1011300009F0B8CF80913102282F30E0809132023F
:10114000882F90E0982F8827822B932BBC0181E079
:101150000E94270580913302282F30E080913402CD
:10116000882F90E0982F8827822B932BBC0181E059
:101170000E94E70580913502282F30E080913602E9
:10118000882F90E0982F8827822B932BBC0181E039
:101190000E94BB0687CF1F920F920FB60F921124A9
:1011A0000BB60F922F933F938F939F93EF93FF93E1
:1011B000CF93DF93CDB7DEB780914402282F30E084
:1011C00086EC90E0275C3D4FF9012081FC012083F3
:1011D00080914402882F90E0875C9D4FFC018081C4
:1011E000813229F080914402893079F070F01092B8
:1011F000440281EC90E0FC01208181EC90E02F7DA5
:10120000FC0120831092430206C0809144028F5F4C
:101210008093440200000000DF91CF91FF91EF9195
:101220009F918F913F912F910F900BBE0F900FBE0A
:101230000F901F9018951F920F920FB60F921124C6
:101240000BB60F922F933F938F939F93EF93FF9340
:10125000CF93DF930F920F92CDB7DEB786EC90E07D
:10126000FC0180818A838A818D3FD1F410924502EE
:1012700085E290E0FC01208185E290E02F7DFC0179
:10128000208380914502882F90E02A818A5B9D4FC0
:10129000FC012083809145028F5F8093450249C005
:1012A0008A81813279F580914502882F90E02A81E8
:1012B0008A5B9D4FFC0120838AE0898311C089816C
:1012C000815089838981282F30E08981882F90E09F
:1012D0002A5B3D4FF9012081815D9D4FFC012083F8
:1012E0008981882361F71092450281E080932E0264
:1012F00085E290E0FC01208185E290E02F7EFC01F8
:10130000208317C080914502882F90E02A818A5B54
:101310009D4FFC012083809145028F5F80934502A1
:1013200085E290E0FC01208185E290E02F7BFC01CA
:10133000208300000F900F90DF91CF91FF91EF91EC
:101340009F918F913F912F910F900BBE0F900FBEE9
:101350000F901F901895CF93DF93CDB7DEB7F89419
:1013600085EC90E0FC01108284EC90E027E6FC0123
:10137000208381EC90E0FC01208181EC90E02869E1
:10138000FC01208382EC90E0FC01208182EC90E063
:101390002660FC01208378940000DF91CF910895AE
:1013A000CF93DF9300D0CDB7DEB79B838A83809144
:1013B0004302882329F581E0809343028AE08983F0
:1013C00013C08981815089838981882F90E02A8187
:1013D0003B81280F391F8981882F90E0F9012081F6
:1013E000875C9D4FFC0120838981882351F781EC24
:1013F00090E0FC01208181EC90E02062FC012083E0
:1014000000000F900F900F90DF91CF91089597FB00
:10141000072E16F4009407D077FD09D00E94300AF9
:1014200007FC05D03EF4909581959F4F08957095E7
:1014300061957F4F08950024A7FD00942A0F301D69
:10144000401D501D601D701D801D901D08952A199E
:101450003B094C095D096E097F09800B910B0895CA
:10146000AA1BBB1B51E107C0AA1FBB1FA617B707CA
:1014700010F0A61BB70B881F991F5A95A9F78095E6
:101480009095BC01CD0108950E94780A08F481E08E
:1014900008950E94A40A88F09F5798F0B92F9927C1
:1014A000B751B0F0E1F0660F771F881F991F1AF04F
:1014B000BA95C9F714C0B13091F00E94BE0AB1E0EC
:1014C00008950C94BE0A672F782F8827B85F39F0EB
:1014D000B93FCCF3869577956795B395D9F73EF4E8
:1014E00090958095709561957F4F8F4F9F4F089590
:1014F000990F0008550FAA0BE0E8FEEF1616170625
:10150000E807F907C0F012161306E407F50798F08C
:10151000621B730B840B950B39F40A2661F0232BA5
:10152000242B252B21F408950A2609F4A140A69521
:101530008FEF811D811D089557FD9058440F551F51
:1015400059F05F3F71F04795880F97FB991F61F045
:101550009F3F79F087950895121613061406551FBC
:10156000F2CF4695F1DF08C0161617061806991F28
:10157000F1CF86957105610508940895E894BB271D
:1015800066277727CB0197F908950E94780A08F417
:101590008FEF08950E94DD0A0C944E0B0E94400BC1
:1015A00038F00E94470B20F0952311F00C94370B74
:1015B0000C943D0B11240C94BF0A0E949C0A70F3FA
:1015C000959FC1F3950F50E0551F629FF001729FE8
:1015D000BB27F00DB11D639FAA27F00DB11DAA1FF7
:1015E000649F6627B00DA11D661F829F2227B00D44
:1015F000A11D621F739FB00DA11D621F839FA00DCF
:10160000611D221F749F3327A00D611D231F849F1E
:10161000600D211D822F762F6A2F11249F57504075
:101620009AF0F1F088234AF0EE0FFF1FBB1F661FF0
:10163000771F881F91505040A9F79E3F510580F0B9
:101640000C94370B0C94BF0A5F3FE4F3983ED4F33D
:10165000869577956795B795F795E7959F5FC1F75D
:10166000FE2B880F911D9695879597F9089597F908
:101670009F6780E870E060E008959FEF80EC089538
:1016800000240A9416161706180609060895002461
:101690000A9412161306140605060895092E0394DB
:1016A000000C11F4882352F0BB0F40F4BF2B11F44F
:1016B00060FF04C06F5F7F4F8F4F9F4F0895F89476
:0216C000FFCF5A
:00000001FF
